:020000040000FA
:10000000B201EE28A501A400B3172730A3001030D9
:1000100015200330A300E8301520A301643015201B
:10002000A3010A30152024082028A2002508A100D9
:100030002408A000B7202008031DB313B31B080039
:10004000303EA70086118610061183168611861091
:1000500006110F30860583122708B2184C283A3053
:10006000A100FC3090203330A60060201030A100A9
:1000700068309020602064308F202230A6006020FD
:1000800028304B200C304B2001304B2006304B20C9
:10009000B21427084C283214A600321C5A288610A5
:1000A000033C031C5F285F200730A100D030902064
:1000B000031408003214FE3C0319E9288614321C8C
:1000C000321086150F3086052608F0398604861111
:1000D000A60E3218602832308F2003140800A000CA
:1000E000A00DA00D200D3839C1389F000030A100AF
:1000F000643090201F151F197B281E08A10083164D
:100100001E08E928A301A200FF30A207031CA307D1
:10011000031CE9280330A100DF3090208428A101CE
:10012000E83EA000A109FC30031C9928A007031891
:100130009628A0076400A10F962820189F28A01CCD
:10014000A3280000A3280800A2000430A728A800C4
:1001500023082102031DAE282208200204300318C0
:100160000130031902302805031DFF30E928A501DD
:10017000A4011030A600210DA40DA50D2208A40293
:100180002308031C230FA5020318CD282208A40767
:1001900023080318230FA5070310A00DA10DA60B1C
:1001A000BB282008E9281030A800A101A001A70C55
:1001B000A60C031CE1282208A00723080318230F1C
:1001C000A107A10CA00CA50CA40CA80BD7282408EF
:1001D000E928831303138312640008008316013097
:1001E00085008601870188018E309F0083120611E9
:1001F00083160611FE3083128A01212001308A0104
:100200002120C8308A01822000308A016F20B80086
:100210002108B90064008A110A121F190A299230B4
:100220003802BC000030031C013E3902BD003C080E
:10023000A6003D08A7006430A200A3018A01D320D4
:10024000BC002508BD003C08A0003D08A1001630F8
:10025000A200A3018A01B720BA002108BB003A0816
:10026000A0003B08A1000A30A200A3018A01B72028
:100270002408BE003A08A0003B08A1000A30A200F2
:10028000A3018A01B720BA002108BB00FE308A0111
:10029000212001308A01212020308A01212048308C
:1002A0008A01212041308A0121204D308A012120FC
:1002B00020308A0121203D308A0121203908A50003
:1002C00038088A010320FE308A012120C0308A01CB
:1002D000212020308A01212049308A0121205330F9
:1002E0008A01212049308A0121203D308A012120C4
:1002F0003B08A5003A088A0103202C308A012120FE
:100300003E088A01022020308A01212043308A01E0
:1003100021200130A300F4308A0183203A08A00094
:100320003B08A100A30119308A01A4208A110A12F6
:10033000031D9F29071487108A110A12A12907108B
:0603400087148A01042964
:02400E00753FFC
:00000001FF
