:020000040000FA
:10000000B201F128A501A400B3172730A3001030D6
:1000100015200330A300E8301520A301643015201B
:10002000A3010A30152024082028A2002508A100D9
:100030002408A000BA202008031DB313B31B080036
:10004000303EA70086118610061183168611861091
:1000500006110F30860583122708B2184C283A3053
:10006000A100FC3090203330A60060201030A100A9
:1000700068309020602064308F202230A6006020FD
:1000800028304B200C304B2001304B2006304B20C9
:10009000B21427084C283214A600321C5A288610A5
:1000A000033C031C5F285F200730A100D030902064
:1000B000031408003214FE3C0319EC288614321C89
:1000C000321086150F3086052608F0398604861111
:1000D000A60E3218602832308F2003140800A000CA
:1000E000A00DA00D200D3839C1389F000030A100AF
:1000F000643090201F151F197B281E08A10083164D
:100100001E08EC28A301A200FF30A207031CA307CE
:10011000031CEC280330A100DF3090208428A101CB
:10012000E83EA000A109FC30031C9928A007031891
:100130009628A0076400A10F962820189F28A01CCD
:10014000A3280000A3280800A2000330AA28A200C8
:100150000430AA28A80023082102031DB128220880
:100160002002043003180130031902302805031D52
:10017000FF30EC28A501A4011030A600210DA40D2C
:10018000A50D2208A4022308031C230FA5020318AF
:10019000D0282208A40723080318230FA50703105B
:1001A000A00DA10DA60BBE282008EC281030A80039
:1001B000A101A001A70CA60C031CE4282208A0079B
:1001C00023080318230FA107A10CA00CA50CA40C55
:1001D000A80BDA282408EC28831303138312640085
:1001E00008008316013085008601870188018E3062
:1001F0009F008312061183160611FE3083128A01B6
:10020000212001308A012120C8308A01822000305B
:100210008A016F20B8002108B90064008A110A120F
:100220001F190D293808A0003908A1001430A200B8
:10023000A3018A01BA20B8002108B900FE308A0162
:10024000212001308A01212020308A0121204830DC
:100250008A01212041308A0121204D308A0121204C
:1002600020308A0121203D308A0121203908A50053
:1002700038088A010320B80A0319B90A3808A60009
:100280003908A700E230A2000430A3008A01D6207A
:100290002508BA002008BB003A08A0003B08A100CE
:1002A0006430A200A3018A01BA20BC002108BD006D
:1002B0003C08A0003D08A1000A30A200A3018A0169
:1002C000BA202408BE003C08A0003D08A1000A3066
:1002D000A200A3018A01BA20BC002108BD00FE30A3
:1002E0008A012120C0308A01212020308A0121206A
:1002F00056308A0121204F308A0121204C308A015A
:10030000212054308A0121203D308A0121203D08DE
:10031000A5003C088A0103202C308A0121203E08D8
:100320008A0102200130A300F4308A0183203808BA
:10033000A0003908A100A30119308A01A7208A1161
:100340000A12031DA529851405113808A0003908D3
:10035000A100A30119308A01A4208A110A12031DE9
:0A036000B329051585108A0107294D
:02400E00753FFC
:00000001FF
