:020000040000FA
:10000000B201C7280408A7008611861006118316BE
:100010008611861006110F30860583122708B21844
:100020002E283A30A100FC308D203330A60042202B
:100030001030A10068308D20422064308C202230A6
:10004000A600422028302D200C302D2001302D20FC
:1000500006302D20B21427082E283214A600321C98
:100060003C288610033C031C412841200730A10096
:10007000D0308D20031408003214FE3C0319C2282E
:100080008614321C321086150F3086052608F0398A
:1000900086048611A60E3218422832308C200314B2
:1000A0000800B31329080319B3170530A800273037
:1000B000A300103067200330A300E8306720A301BD
:1000C00064306720A3010A30672024086E28A2004C
:1000D0002508A1002408A000A1202008A000A80352
:1000E0000319B313290803197828280203180800F4
:1000F0002008031DB313B31B0800303EBD28A30125
:10010000A200FF30A207031CA307031CC228033070
:10011000A100DF308D208128A101E83EA000A109C7
:10012000FC30031C9628A00703189328A00764003E
:10013000A10F932820189C28A01CA0280000A0280C
:100140000800A501A4011030A600210DA40DA50DE5
:100150002208A4022308031C230FA5020318B728B2
:100160002208A40723080318230FA5070310A00DD6
:10017000A10DA60BA5282008C228840031088A00FA
:100180003008820083130313831264000800B8014F
:1001900083160130850086014E30831203204F30D4
:1001A00003203A3003202030032031300320363042
:1001B000032030300320303003203830032031302A
:1001C0000320313003203830032030300320343016
:1001D00003203030032020300320453003204E30F0
:1001E000032047300320493003204E3003202030C5
:1001F00003204B3003204130032052300320413094
:10020000032054300320413003205330032020309A
:100210000320483003204F30032053300320473061
:100220000320453003204C30032044300320493064
:1002300003204E30032020300320203003202030C4
:1002400003205330032061300320793003206930CC
:100250000320633003206930032020300320503016
:100260000320523003204F30032047300320523008
:100270000320413003204D300320203003202D3057
:1002800003203E3003200130A300F4308020FE30F4
:10029000032001300320FE300320023003202030F1
:1002A000032020300320203003205330032041302E
:1002B00003205930032049300320203003203D30F3
:1002C0000320203003200430A9003808A400A50131
:1002D0000230B000B1015120640005187029B80A3D
:0E02E000640085187429B8034B296300752942
:02400E00653F0C
:00000001FF
