:020000040000FA
:10000000B201ED28A501A400B3172730A3001030DA
:1000100015200330A300E8301520A301643015201B
:10002000A3010A30152024082028A2002508A100D9
:100030002408A000C7202008031DB313B31B080029
:10004000303E23280408A700861186100611831667
:100050008611861006110F30860583122708B21804
:100060004E283A30A100FC30B3203330A600622085
:100070001030A1006830B32062206430B2202230FA
:10008000A600622028304D200C304D2001304D203C
:1000900006304D20B21427084E283214A600321C18
:1000A0005C288610033C031C612861200730A100F6
:1000B000D030B320031408003214FE3C0319E828A2
:1000C0008614321C321086150F3086052608F0394A
:1000D00086048611A60E321862283230B22003142C
:1000E0000800B31329080319B3171030A80003013F
:1000F000A40DA50D0318013094202808031D7728AE
:100100000800B31329080319B3170430A800250EFB
:100110008E2025088E20240E8E2024080F39F63ECE
:100120000318073E0A3E9428A000A8030319B3133E
:10013000290803199E282802031808002008031D17
:10014000B313B31B0800303EE328A301A200FF3025
:10015000A207031CA307031CE8280330A100DF301B
:10016000B320A728A101E83EA000A109FC30031C90
:10017000BC28A0070318B928A0076400A10FB9285C
:100180002018C228A01CC6280000C6280800A50107
:10019000A4011030A600210DA40DA50D2208A40273
:1001A0002308031C230FA5020318DD282208A40737
:1001B00023080318230FA5070310A00DA10DA60BFC
:1001C000CB282008E828840031088A003008820003
:1001D00083130313831264000800831685018601CC
:1001E0008312061183160611C8308312A520FE3033
:1001F000232001302320B801C830A520FE30232061
:1002000002302320203023202030232020302320C0
:1002100053302320413023205930232049302320DC
:100220003D30232020302320203023203808022096
:10023000FE302320C03023204230232049302320A9
:100240004E302320413023205230232059302320A8
:10025000203023203D30232020302320A9013808DE
:10026000A400A5012230B000B10171200130A3002B
:10027000F430A620640005183E29B80A64006430F2
:100280003802031CFE28B801FE3023200230232050
:10029000533023204130232059302320493023205C
:1002A00020302320203023203D30232020302320E5
:1002B00038080220FE302320C0302320483023207D
:1002C0004530232058302320203023202030232085
:1002D0003D302320203023200230A9003808A4001C
:1002E000A5012230B000B10181200130A300F4301B
:1002F000A6200A30B8076400FA303802031C4429EB
:0403000063008029ED
:02400E00653F0C
:00000001FF
